{
  "_format": "hh-sol-artifact-1",
  "contractName": "AnimatedSVGToken",
  "sourceName": "contracts/Token.sol",
  "abi": [
    {
      "inputs": [
        {
          "internalType": "address",
          "name": "initialOwner",
          "type": "address"
        }
      ],
      "stateMutability": "nonpayable",
      "type": "constructor"
    },
    {
      "inputs": [
        {
          "internalType": "address",
          "name": "sender",
          "type": "address"
        },
        {
          "internalType": "uint256",
          "name": "tokenId",
          "type": "uint256"
        },
        {
          "internalType": "address",
          "name": "owner",
          "type": "address"
        }
      ],
      "name": "ERC721IncorrectOwner",
      "type": "error"
    },
    {
      "inputs": [
        {
          "internalType": "address",
          "name": "operator",
          "type": "address"
        },
        {
          "internalType": "uint256",
          "name": "tokenId",
          "type": "uint256"
        }
      ],
      "name": "ERC721InsufficientApproval",
      "type": "error"
    },
    {
      "inputs": [
        {
          "internalType": "address",
          "name": "approver",
          "type": "address"
        }
      ],
      "name": "ERC721InvalidApprover",
      "type": "error"
    },
    {
      "inputs": [
        {
          "internalType": "address",
          "name": "operator",
          "type": "address"
        }
      ],
      "name": "ERC721InvalidOperator",
      "type": "error"
    },
    {
      "inputs": [
        {
          "internalType": "address",
          "name": "owner",
          "type": "address"
        }
      ],
      "name": "ERC721InvalidOwner",
      "type": "error"
    },
    {
      "inputs": [
        {
          "internalType": "address",
          "name": "receiver",
          "type": "address"
        }
      ],
      "name": "ERC721InvalidReceiver",
      "type": "error"
    },
    {
      "inputs": [
        {
          "internalType": "address",
          "name": "sender",
          "type": "address"
        }
      ],
      "name": "ERC721InvalidSender",
      "type": "error"
    },
    {
      "inputs": [
        {
          "internalType": "uint256",
          "name": "tokenId",
          "type": "uint256"
        }
      ],
      "name": "ERC721NonexistentToken",
      "type": "error"
    },
    {
      "inputs": [
        {
          "internalType": "address",
          "name": "owner",
          "type": "address"
        }
      ],
      "name": "OwnableInvalidOwner",
      "type": "error"
    },
    {
      "inputs": [
        {
          "internalType": "address",
          "name": "account",
          "type": "address"
        }
      ],
      "name": "OwnableUnauthorizedAccount",
      "type": "error"
    },
    {
      "anonymous": false,
      "inputs": [
        {
          "indexed": true,
          "internalType": "address",
          "name": "owner",
          "type": "address"
        },
        {
          "indexed": true,
          "internalType": "address",
          "name": "approved",
          "type": "address"
        },
        {
          "indexed": true,
          "internalType": "uint256",
          "name": "tokenId",
          "type": "uint256"
        }
      ],
      "name": "Approval",
      "type": "event"
    },
    {
      "anonymous": false,
      "inputs": [
        {
          "indexed": true,
          "internalType": "address",
          "name": "owner",
          "type": "address"
        },
        {
          "indexed": true,
          "internalType": "address",
          "name": "operator",
          "type": "address"
        },
        {
          "indexed": false,
          "internalType": "bool",
          "name": "approved",
          "type": "bool"
        }
      ],
      "name": "ApprovalForAll",
      "type": "event"
    },
    {
      "anonymous": false,
      "inputs": [
        {
          "indexed": true,
          "internalType": "address",
          "name": "previousOwner",
          "type": "address"
        },
        {
          "indexed": true,
          "internalType": "address",
          "name": "newOwner",
          "type": "address"
        }
      ],
      "name": "OwnershipTransferred",
      "type": "event"
    },
    {
      "anonymous": false,
      "inputs": [
        {
          "indexed": true,
          "internalType": "address",
          "name": "from",
          "type": "address"
        },
        {
          "indexed": true,
          "internalType": "address",
          "name": "to",
          "type": "address"
        },
        {
          "indexed": true,
          "internalType": "uint256",
          "name": "tokenId",
          "type": "uint256"
        }
      ],
      "name": "Transfer",
      "type": "event"
    },
    {
      "inputs": [
        {
          "internalType": "address",
          "name": "to",
          "type": "address"
        },
        {
          "internalType": "uint256",
          "name": "tokenId",
          "type": "uint256"
        }
      ],
      "name": "approve",
      "outputs": [],
      "stateMutability": "nonpayable",
      "type": "function"
    },
    {
      "inputs": [
        {
          "internalType": "address",
          "name": "owner",
          "type": "address"
        }
      ],
      "name": "balanceOf",
      "outputs": [
        {
          "internalType": "uint256",
          "name": "",
          "type": "uint256"
        }
      ],
      "stateMutability": "view",
      "type": "function"
    },
    {
      "inputs": [
        {
          "internalType": "uint256",
          "name": "tokenId",
          "type": "uint256"
        }
      ],
      "name": "getApproved",
      "outputs": [
        {
          "internalType": "address",
          "name": "",
          "type": "address"
        }
      ],
      "stateMutability": "view",
      "type": "function"
    },
    {
      "inputs": [
        {
          "internalType": "address",
          "name": "owner",
          "type": "address"
        },
        {
          "internalType": "address",
          "name": "operator",
          "type": "address"
        }
      ],
      "name": "isApprovedForAll",
      "outputs": [
        {
          "internalType": "bool",
          "name": "",
          "type": "bool"
        }
      ],
      "stateMutability": "view",
      "type": "function"
    },
    {
      "inputs": [],
      "name": "name",
      "outputs": [
        {
          "internalType": "string",
          "name": "",
          "type": "string"
        }
      ],
      "stateMutability": "view",
      "type": "function"
    },
    {
      "inputs": [],
      "name": "owner",
      "outputs": [
        {
          "internalType": "address",
          "name": "",
          "type": "address"
        }
      ],
      "stateMutability": "view",
      "type": "function"
    },
    {
      "inputs": [
        {
          "internalType": "uint256",
          "name": "tokenId",
          "type": "uint256"
        }
      ],
      "name": "ownerOf",
      "outputs": [
        {
          "internalType": "address",
          "name": "",
          "type": "address"
        }
      ],
      "stateMutability": "view",
      "type": "function"
    },
    {
      "inputs": [],
      "name": "renounceOwnership",
      "outputs": [],
      "stateMutability": "nonpayable",
      "type": "function"
    },
    {
      "inputs": [
        {
          "internalType": "address",
          "name": "to",
          "type": "address"
        },
        {
          "internalType": "uint256",
          "name": "lineLength",
          "type": "uint256"
        },
        {
          "internalType": "uint8[]",
          "name": "bits",
          "type": "uint8[]"
        }
      ],
      "name": "safeMint",
      "outputs": [],
      "stateMutability": "nonpayable",
      "type": "function"
    },
    {
      "inputs": [
        {
          "internalType": "address",
          "name": "from",
          "type": "address"
        },
        {
          "internalType": "address",
          "name": "to",
          "type": "address"
        },
        {
          "internalType": "uint256",
          "name": "tokenId",
          "type": "uint256"
        }
      ],
      "name": "safeTransferFrom",
      "outputs": [],
      "stateMutability": "nonpayable",
      "type": "function"
    },
    {
      "inputs": [
        {
          "internalType": "address",
          "name": "from",
          "type": "address"
        },
        {
          "internalType": "address",
          "name": "to",
          "type": "address"
        },
        {
          "internalType": "uint256",
          "name": "tokenId",
          "type": "uint256"
        },
        {
          "internalType": "bytes",
          "name": "data",
          "type": "bytes"
        }
      ],
      "name": "safeTransferFrom",
      "outputs": [],
      "stateMutability": "nonpayable",
      "type": "function"
    },
    {
      "inputs": [
        {
          "internalType": "address",
          "name": "operator",
          "type": "address"
        },
        {
          "internalType": "bool",
          "name": "approved",
          "type": "bool"
        }
      ],
      "name": "setApprovalForAll",
      "outputs": [],
      "stateMutability": "nonpayable",
      "type": "function"
    },
    {
      "inputs": [
        {
          "internalType": "bytes4",
          "name": "interfaceId",
          "type": "bytes4"
        }
      ],
      "name": "supportsInterface",
      "outputs": [
        {
          "internalType": "bool",
          "name": "",
          "type": "bool"
        }
      ],
      "stateMutability": "view",
      "type": "function"
    },
    {
      "inputs": [],
      "name": "symbol",
      "outputs": [
        {
          "internalType": "string",
          "name": "",
          "type": "string"
        }
      ],
      "stateMutability": "view",
      "type": "function"
    },
    {
      "inputs": [
        {
          "internalType": "uint256",
          "name": "tokenId",
          "type": "uint256"
        }
      ],
      "name": "tokenURI",
      "outputs": [
        {
          "internalType": "string",
          "name": "",
          "type": "string"
        }
      ],
      "stateMutability": "view",
      "type": "function"
    },
    {
      "inputs": [
        {
          "internalType": "address",
          "name": "from",
          "type": "address"
        },
        {
          "internalType": "address",
          "name": "to",
          "type": "address"
        },
        {
          "internalType": "uint256",
          "name": "tokenId",
          "type": "uint256"
        }
      ],
      "name": "transferFrom",
      "outputs": [],
      "stateMutability": "nonpayable",
      "type": "function"
    },
    {
      "inputs": [
        {
          "internalType": "address",
          "name": "newOwner",
          "type": "address"
        }
      ],
      "name": "transferOwnership",
      "outputs": [],
      "stateMutability": "nonpayable",
      "type": "function"
    }
  ],
  "bytecode": "0x608060405234801561001057600080fd5b506040516142f83803806142f883398181016040528101906100329190610272565b806040518060400160405280601081526020017f416e696d61746564535647546f6b656e000000000000000000000000000000008152506040518060400160405280600481526020017f415356470000000000000000000000000000000000000000000000000000000081525081600090816100ae91906104ef565b5080600190816100be91906104ef565b505050600073ffffffffffffffffffffffffffffffffffffffff168173ffffffffffffffffffffffffffffffffffffffff16036101335760006040517f1e4fbdf700000000000000000000000000000000000000000000000000000000815260040161012a91906105d0565b60405180910390fd5b6101428161014960201b60201c565b50506105eb565b6000600660009054906101000a900473ffffffffffffffffffffffffffffffffffffffff16905081600660006101000a81548173ffffffffffffffffffffffffffffffffffffffff021916908373ffffffffffffffffffffffffffffffffffffffff1602179055508173ffffffffffffffffffffffffffffffffffffffff168173ffffffffffffffffffffffffffffffffffffffff167f8be0079c531659141344cd1fd0a4f28419497f9722a3daafe3b4186f6b6457e060405160405180910390a35050565b600080fd5b600073ffffffffffffffffffffffffffffffffffffffff82169050919050565b600061023f82610214565b9050919050565b61024f81610234565b811461025a57600080fd5b50565b60008151905061026c81610246565b92915050565b6000602082840312156102885761028761020f565b5b60006102968482850161025d565b91505092915050565b600081519050919050565b7f4e487b7100000000000000000000000000000000000000000000000000000000600052604160045260246000fd5b7f4e487b7100000000000000000000000000000000000000000000000000000000600052602260045260246000fd5b6000600282049050600182168061032057607f821691505b602082108103610333576103326102d9565b5b50919050565b60008190508160005260206000209050919050565b60006020601f8301049050919050565b600082821b905092915050565b60006008830261039b7fffffffffffffffffffffffffffffffffffffffffffffffffffffffffffffffff8261035e565b6103a5868361035e565b95508019841693508086168417925050509392505050565b6000819050919050565b6000819050919050565b60006103ec6103e76103e2846103bd565b6103c7565b6103bd565b9050919050565b6000819050919050565b610406836103d1565b61041a610412826103f3565b84845461036b565b825550505050565b600090565b61042f610422565b61043a8184846103fd565b505050565b5b8181101561045e57610453600082610427565b600181019050610440565b5050565b601f8211156104a35761047481610339565b61047d8461034e565b8101602085101561048c578190505b6104a06104988561034e565b83018261043f565b50505b505050565b600082821c905092915050565b60006104c6600019846008026104a8565b1980831691505092915050565b60006104df83836104b5565b9150826002028217905092915050565b6104f88261029f565b67ffffffffffffffff811115610511576105106102aa565b5b61051b8254610308565b610526828285610462565b600060209050601f8311600181146105595760008415610547578287015190505b61055185826104d3565b8655506105b9565b601f19841661056786610339565b60005b8281101561058f5784890151825560018201915060208501945060208101905061056a565b868310156105ac57848901516105a8601f8916826104b5565b8355505b6001600288020188555050505b505050505050565b6105ca81610234565b82525050565b60006020820190506105e560008301846105c1565b92915050565b613cfe806105fa6000396000f3fe608060405234801561001057600080fd5b506004361061010b5760003560e01c806370a08231116100a2578063a22cb46511610071578063a22cb465146102a4578063b88d4fde146102c0578063c87b56dd146102dc578063e985e9c51461030c578063f2fde38b1461033c5761010b565b806370a082311461022e578063715018a61461025e5780638da5cb5b1461026857806395d89b41146102865761010b565b8063095ea7b3116100de578063095ea7b3146101aa57806323b872dd146101c657806342842e0e146101e25780636352211e146101fe5761010b565b806301795b1a1461011057806301ffc9a71461012c57806306fdde031461015c578063081812fc1461017a575b600080fd5b61012a60048036038101906101259190612488565b610358565b005b61014660048036038101906101419190612554565b61041f565b604051610153919061259c565b60405180910390f35b610164610501565b6040516101719190612647565b60405180910390f35b610194600480360381019061018f9190612669565b610593565b6040516101a191906126a5565b60405180910390f35b6101c460048036038101906101bf91906126c0565b6105af565b005b6101e060048036038101906101db9190612700565b6105c5565b005b6101fc60048036038101906101f79190612700565b6106c7565b005b61021860048036038101906102139190612669565b6106e7565b60405161022591906126a5565b60405180910390f35b61024860048036038101906102439190612753565b6106f9565b604051610255919061278f565b60405180910390f35b6102666107b3565b005b6102706107c7565b60405161027d91906126a5565b60405180910390f35b61028e6107f1565b60405161029b9190612647565b60405180910390f35b6102be60048036038101906102b991906127d6565b610883565b005b6102da60048036038101906102d59190612946565b610899565b005b6102f660048036038101906102f19190612669565b6108be565b6040516103039190612647565b60405180910390f35b610326600480360381019061032191906129c9565b610a43565b604051610333919061259c565b60405180910390f35b61035660048036038101906103519190612753565b610ad7565b005b610360610b5d565b60006007600081548092919061037590612a38565b9190505590506103858582610be4565b6040518060400160405280848480806020026020016040519081016040528093929190818152602001838360200280828437600081840152601f19601f8201169050808301925050505050505081526020018581525060086000838152602001908152602001600020600082015181600001908051906020019061040a92919061228b565b50602082015181600101559050505050505050565b60007f80ac58cd000000000000000000000000000000000000000000000000000000007bffffffffffffffffffffffffffffffffffffffffffffffffffffffff1916827bffffffffffffffffffffffffffffffffffffffffffffffffffffffff191614806104ea57507f5b5e139f000000000000000000000000000000000000000000000000000000007bffffffffffffffffffffffffffffffffffffffffffffffffffffffff1916827bffffffffffffffffffffffffffffffffffffffffffffffffffffffff1916145b806104fa57506104f982610c02565b5b9050919050565b60606000805461051090612aaf565b80601f016020809104026020016040519081016040528092919081815260200182805461053c90612aaf565b80156105895780601f1061055e57610100808354040283529160200191610589565b820191906000526020600020905b81548152906001019060200180831161056c57829003601f168201915b5050505050905090565b600061059e82610c6c565b506105a882610cf4565b9050919050565b6105c182826105bc610d31565b610d39565b5050565b600073ffffffffffffffffffffffffffffffffffffffff168273ffffffffffffffffffffffffffffffffffffffff16036106375760006040517f64a0ae9200000000000000000000000000000000000000000000000000000000815260040161062e91906126a5565b60405180910390fd5b600061064b8383610646610d31565b610d4b565b90508373ffffffffffffffffffffffffffffffffffffffff168173ffffffffffffffffffffffffffffffffffffffff16146106c1578382826040517f64283d7b0000000000000000000000000000000000000000000000000000000081526004016106b893929190612ae0565b60405180910390fd5b50505050565b6106e283838360405180602001604052806000815250610899565b505050565b60006106f282610c6c565b9050919050565b60008073ffffffffffffffffffffffffffffffffffffffff168273ffffffffffffffffffffffffffffffffffffffff160361076c5760006040517f89c62b6400000000000000000000000000000000000000000000000000000000815260040161076391906126a5565b60405180910390fd5b600360008373ffffffffffffffffffffffffffffffffffffffff1673ffffffffffffffffffffffffffffffffffffffff168152602001908152602001600020549050919050565b6107bb610b5d565b6107c56000610f65565b565b6000600660009054906101000a900473ffffffffffffffffffffffffffffffffffffffff16905090565b60606001805461080090612aaf565b80601f016020809104026020016040519081016040528092919081815260200182805461082c90612aaf565b80156108795780601f1061084e57610100808354040283529160200191610879565b820191906000526020600020905b81548152906001019060200180831161085c57829003601f168201915b5050505050905090565b61089561088e610d31565b838361102b565b5050565b6108a48484846105c5565b6108b86108af610d31565b8585858561119a565b50505050565b60606000610970600860008581526020019081526020016000206040518060400160405290816000820180548060200260200160405190810160405280929190818152602001828054801561095857602002820191906000526020600020906000905b82829054906101000a900460ff1660ff16815260200190600101906020826000010492830192600103820291508084116109215790505b5050505050815260200160018201548152505061134b565b9050600061097d8261153c565b60405160200161098d9190612beb565b604051602081830303815290604052905060006109a8611551565b90506109b381611576565b60006109be8261153c565b6040516020016109ce9190612c8e565b604051602081830303815290604052905060006109ea8761160f565b84836040516020016109fe93929190612da3565b6040516020818303038152906040529050610a188161153c565b604051602001610a289190612e32565b60405160208183030381529060405295505050505050919050565b6000600560008473ffffffffffffffffffffffffffffffffffffffff1673ffffffffffffffffffffffffffffffffffffffff16815260200190815260200160002060008373ffffffffffffffffffffffffffffffffffffffff1673ffffffffffffffffffffffffffffffffffffffff16815260200190815260200160002060009054906101000a900460ff16905092915050565b610adf610b5d565b600073ffffffffffffffffffffffffffffffffffffffff168173ffffffffffffffffffffffffffffffffffffffff1603610b515760006040517f1e4fbdf7000000000000000000000000000000000000000000000000000000008152600401610b4891906126a5565b60405180910390fd5b610b5a81610f65565b50565b610b65610d31565b73ffffffffffffffffffffffffffffffffffffffff16610b836107c7565b73ffffffffffffffffffffffffffffffffffffffff1614610be257610ba6610d31565b6040517f118cdaa7000000000000000000000000000000000000000000000000000000008152600401610bd991906126a5565b60405180910390fd5b565b610bfe828260405180602001604052806000815250611660565b5050565b60007f01ffc9a7000000000000000000000000000000000000000000000000000000007bffffffffffffffffffffffffffffffffffffffffffffffffffffffff1916827bffffffffffffffffffffffffffffffffffffffffffffffffffffffff1916149050919050565b600080610c7883611684565b9050600073ffffffffffffffffffffffffffffffffffffffff168173ffffffffffffffffffffffffffffffffffffffff1603610ceb57826040517f7e273289000000000000000000000000000000000000000000000000000000008152600401610ce2919061278f565b60405180910390fd5b80915050919050565b60006004600083815260200190815260200160002060009054906101000a900473ffffffffffffffffffffffffffffffffffffffff169050919050565b600033905090565b610d4683838360016116c1565b505050565b600080610d5784611684565b9050600073ffffffffffffffffffffffffffffffffffffffff168373ffffffffffffffffffffffffffffffffffffffff1614610d9957610d98818486611886565b5b600073ffffffffffffffffffffffffffffffffffffffff168173ffffffffffffffffffffffffffffffffffffffff1614610e2a57610ddb6000856000806116c1565b6001600360008373ffffffffffffffffffffffffffffffffffffffff1673ffffffffffffffffffffffffffffffffffffffff168152602001908152602001600020600082825403925050819055505b600073ffffffffffffffffffffffffffffffffffffffff168573ffffffffffffffffffffffffffffffffffffffff1614610ead576001600360008773ffffffffffffffffffffffffffffffffffffffff1673ffffffffffffffffffffffffffffffffffffffff168152602001908152602001600020600082825401925050819055505b846002600086815260200190815260200160002060006101000a81548173ffffffffffffffffffffffffffffffffffffffff021916908373ffffffffffffffffffffffffffffffffffffffff160217905550838573ffffffffffffffffffffffffffffffffffffffff168273ffffffffffffffffffffffffffffffffffffffff167fddf252ad1be2c89b69c2b068fc378daa952ba7f163c4a11628f55a4df523b3ef60405160405180910390a4809150509392505050565b6000600660009054906101000a900473ffffffffffffffffffffffffffffffffffffffff16905081600660006101000a81548173ffffffffffffffffffffffffffffffffffffffff021916908373ffffffffffffffffffffffffffffffffffffffff1602179055508173ffffffffffffffffffffffffffffffffffffffff168173ffffffffffffffffffffffffffffffffffffffff167f8be0079c531659141344cd1fd0a4f28419497f9722a3daafe3b4186f6b6457e060405160405180910390a35050565b600073ffffffffffffffffffffffffffffffffffffffff168273ffffffffffffffffffffffffffffffffffffffff160361109c57816040517f5b08ba1800000000000000000000000000000000000000000000000000000000815260040161109391906126a5565b60405180910390fd5b80600560008573ffffffffffffffffffffffffffffffffffffffff1673ffffffffffffffffffffffffffffffffffffffff16815260200190815260200160002060008473ffffffffffffffffffffffffffffffffffffffff1673ffffffffffffffffffffffffffffffffffffffff16815260200190815260200160002060006101000a81548160ff0219169083151502179055508173ffffffffffffffffffffffffffffffffffffffff168373ffffffffffffffffffffffffffffffffffffffff167f17307eab39ab6107e8899845ad3d59bd9653f200f220920489ca2b5937696c318360405161118d919061259c565b60405180910390a3505050565b60008373ffffffffffffffffffffffffffffffffffffffff163b1115611344578273ffffffffffffffffffffffffffffffffffffffff1663150b7a02868685856040518563ffffffff1660e01b81526004016111f99493929190612ead565b6020604051808303816000875af192505050801561123557506040513d601f19601f820116820180604052508101906112329190612f0e565b60015b6112b9573d8060008114611265576040519150601f19603f3d011682016040523d82523d6000602084013e61126a565b606091505b5060008151036112b157836040517f64a0ae920000000000000000000000000000000000000000000000000000000081526004016112a891906126a5565b60405180910390fd5b805181602001fd5b63150b7a0260e01b7bffffffffffffffffffffffffffffffffffffffffffffffffffffffff1916817bffffffffffffffffffffffffffffffffffffffffffffffffffffffff19161461134257836040517f64a0ae9200000000000000000000000000000000000000000000000000000000815260040161133991906126a5565b60405180910390fd5b505b5050505050565b606060006103209050600060149050600080600080600061136b8961194a565b905061137681611b7e565b8095508196508297508398505050505061139761139286611d39565b611576565b600086600287866113a89190612f45565b6113b29190612fb7565b876113bd9190613021565b6113c79190613065565b6002896113d49190612fb7565b6113dd906130dd565b6113e79190613021565b9050600087600287866113fa9190612f45565b6114049190612fb7565b8761140f9190613021565b6114199190613065565b60028a6114269190612fb7565b61142f906130dd565b6114399190613021565b905061144c61144783611d39565b611576565b600061145783611d39565b61146083611d39565b6114698c611d39565b6114728d611d39565b61147b8e611d39565b6114848f611d39565b6040516020016114999695949392919061322f565b604051602081830303815290604052905060006040518060400160405280600681526020017f3c2f7376673e0000000000000000000000000000000000000000000000000000815250905060006114f28c8c8787611d7a565b90506000611500878d611ea3565b90508382828560405160200161151994939291906132ec565b6040516020818303038152906040529d5050505050505050505050505050919050565b606061154a82600080611f8e565b9050919050565b6060604051602001611562906137b5565b604051602081830303815290604052905090565b61160c8160405160240161158a9190612647565b6040516020818303038152906040527f41304fac000000000000000000000000000000000000000000000000000000007bffffffffffffffffffffffffffffffffffffffffffffffffffffffff19166020820180517bffffffffffffffffffffffffffffffffffffffffffffffffffffffff838183161783525050505061208b565b50565b60606080604051019050602081016040526000815280600019835b60011561164b578184019350600a81066030018453600a810490508061162a575b50828203602084039350808452505050919050565b61166a83836120a5565b61167f611675610d31565b600085858561119a565b505050565b60006002600083815260200190815260200160002060009054906101000a900473ffffffffffffffffffffffffffffffffffffffff169050919050565b80806116fa5750600073ffffffffffffffffffffffffffffffffffffffff168273ffffffffffffffffffffffffffffffffffffffff1614155b1561182e57600061170a84610c6c565b9050600073ffffffffffffffffffffffffffffffffffffffff168373ffffffffffffffffffffffffffffffffffffffff161415801561177557508273ffffffffffffffffffffffffffffffffffffffff168173ffffffffffffffffffffffffffffffffffffffff1614155b801561178857506117868184610a43565b155b156117ca57826040517fa9fbf51f0000000000000000000000000000000000000000000000000000000081526004016117c191906126a5565b60405180910390fd5b811561182c57838573ffffffffffffffffffffffffffffffffffffffff168273ffffffffffffffffffffffffffffffffffffffff167f8c5be1e5ebec7d5bd14f71427d1e84f3dd0314c0f7b2291e5b200ac8c7c3b92560405160405180910390a45b505b836004600085815260200190815260200160002060006101000a81548173ffffffffffffffffffffffffffffffffffffffff021916908373ffffffffffffffffffffffffffffffffffffffff16021790555050505050565b61189183838361219e565b61194557600073ffffffffffffffffffffffffffffffffffffffff168373ffffffffffffffffffffffffffffffffffffffff160361190657806040517f7e2732890000000000000000000000000000000000000000000000000000000081526004016118fd919061278f565b60405180910390fd5b81816040517f177e802f00000000000000000000000000000000000000000000000000000000815260040161193c9291906137ca565b60405180910390fd5b505050565b60606000600883600001515161196091906137f3565b67ffffffffffffffff8111156119795761197861281b565b5b6040519080825280602002602001820160405280156119b257816020015b61199f612332565b8152602001906001900390816119975790505b5090506000806000805b866000015151811015611ac65760005b6008811015611ab8576000808260076119e59190613835565b6001901b8a600001518581518110611a00576119ff613869565b5b602002602001015160ff161614159050886020015182600885611a2391906137f3565b611a2d9190613898565b611a3791906138cc565b9550886020015182600885611a4c91906137f3565b611a569190613898565b611a6091906138fd565b94508015611aaa57604051806040016040528087815260200186815250878581518110611a9057611a8f613869565b5b60200260200101819052508380611aa690612a38565b9450505b5080806001019150506119cc565b5080806001019150506119bc565b5060008167ffffffffffffffff811115611ae357611ae261281b565b5b604051908082528060200260200182016040528015611b1c57816020015b611b09612332565b815260200190600190039081611b015790505b50905060005b82811015611b7057858181518110611b3d57611b3c613869565b5b6020026020010151828281518110611b5857611b57613869565b5b60200260200101819052508080600101915050611b22565b508095505050505050919050565b600080600080600085600081518110611b9a57611b99613869565b5b6020026020010151600060028110611bb557611bb4613869565b5b60200201519050600086600081518110611bd257611bd1613869565b5b6020026020010151600060028110611bed57611bec613869565b5b60200201519050600087600081518110611c0a57611c09613869565b5b6020026020010151600160028110611c2557611c24613869565b5b60200201519050600088600081518110611c4257611c41613869565b5b6020026020010151600160028110611c5d57611c5c613869565b5b602002015190506000600190505b8951811015611d215760008a8281518110611c8957611c88613869565b5b6020026020010151600060028110611ca457611ca3613869565b5b6020020151905060008b8381518110611cc057611cbf613869565b5b6020026020010151600160028110611cdb57611cda613869565b5b6020020151905086821215611cee578196505b85821315611cfa578195505b84811215611d06578094505b83811315611d12578093505b50508080600101915050611c6b565b50838284839750975097509750505050509193509193565b606060008212611d5357611d4c8261160f565b9050611d75565b611d5f8260000361160f565b90508051602d8252600182039150600181018252505b919050565b60608060008587611d8b9190612fb7565b9050600061032086611d9d9190613021565b9050600061032086611daf9190613021565b905060005b83811215611e935784611ddc8a83611dcc9190613065565b8a611dd79190613021565b611d39565b611dfb8b84611deb9190613065565b8b611df69190613021565b611d39565b611e048a611d39565b611e0d86611d39565b611e2c8e87611e1c9190613065565b8d611e279190613021565b611d39565b611e4b8f88611e3b9190613065565b8e611e469190613021565b611d39565b611e548f611d39565b611e5d8b611d39565b604051602001611e7599989796959493929190613a84565b60405160208183030381529060405294508080600101915050611db4565b5083945050505050949350505050565b60608060005b8451811015611f835781611ef985878481518110611eca57611ec9613869565b5b6020026020010151600060028110611ee557611ee4613869565b5b6020020151611ef49190613065565b611d39565b611f3f86888581518110611f1057611f0f613869565b5b6020026020010151600160028110611f2b57611f2a613869565b5b6020020151611f3a9190613065565b611d39565b611f4887611d39565b611f5188611d39565b604051602001611f65959493929190613c03565b60405160208183030381529060405291508080600101915050611ea9565b508091505092915050565b606083518015612083576003600282010460021b60405192507f4142434445464748494a4b4c4d4e4f505152535455565758595a616263646566601f526106708515027f6768696a6b6c6d6e6f707172737475767778797a303132333435363738392d5f18603f52602083018181015b600115612054576003880197508751603f8160121c1651600053603f81600c1c1651600153603f8160061c1651600253603f811651600353600051835260048301925081831061204e5750612054565b50611ffe565b6020810160405260038406600204613d3d60f01b81840352808715150290506000818403528084038652505050505b509392505050565b6120a28161209a61225f612280565b63ffffffff16565b50565b600073ffffffffffffffffffffffffffffffffffffffff168273ffffffffffffffffffffffffffffffffffffffff16036121175760006040517f64a0ae9200000000000000000000000000000000000000000000000000000000815260040161210e91906126a5565b60405180910390fd5b600061212583836000610d4b565b9050600073ffffffffffffffffffffffffffffffffffffffff168173ffffffffffffffffffffffffffffffffffffffff16146121995760006040517f73c6ac6e00000000000000000000000000000000000000000000000000000000815260040161219091906126a5565b60405180910390fd5b505050565b60008073ffffffffffffffffffffffffffffffffffffffff168373ffffffffffffffffffffffffffffffffffffffff161415801561225657508273ffffffffffffffffffffffffffffffffffffffff168473ffffffffffffffffffffffffffffffffffffffff16148061221757506122168484610a43565b5b8061225557508273ffffffffffffffffffffffffffffffffffffffff1661223d83610cf4565b73ffffffffffffffffffffffffffffffffffffffff16145b5b90509392505050565b60006a636f6e736f6c652e6c6f679050600080835160208501845afa505050565b612354819050919050565b82805482825590600052602060002090601f016020900481019282156123215791602002820160005b838211156122f257835183826101000a81548160ff021916908360ff16021790555092602001926001016020816000010492830192600103026122b4565b801561231f5782816101000a81549060ff02191690556001016020816000010492830192600103026122f2565b505b50905061232e919061235e565b5090565b6040518060400160405280600290602082028036833780820191505090505090565b61235c613c99565b565b5b8082111561237757600081600090555060010161235f565b5090565b6000604051905090565b600080fd5b600080fd5b600073ffffffffffffffffffffffffffffffffffffffff82169050919050565b60006123ba8261238f565b9050919050565b6123ca816123af565b81146123d557600080fd5b50565b6000813590506123e7816123c1565b92915050565b6000819050919050565b612400816123ed565b811461240b57600080fd5b50565b60008135905061241d816123f7565b92915050565b600080fd5b600080fd5b600080fd5b60008083601f84011261244857612447612423565b5b8235905067ffffffffffffffff81111561246557612464612428565b5b6020830191508360208202830111156124815761248061242d565b5b9250929050565b600080600080606085870312156124a2576124a1612385565b5b60006124b0878288016123d8565b94505060206124c18782880161240e565b935050604085013567ffffffffffffffff8111156124e2576124e161238a565b5b6124ee87828801612432565b925092505092959194509250565b60007fffffffff0000000000000000000000000000000000000000000000000000000082169050919050565b612531816124fc565b811461253c57600080fd5b50565b60008135905061254e81612528565b92915050565b60006020828403121561256a57612569612385565b5b60006125788482850161253f565b91505092915050565b60008115159050919050565b61259681612581565b82525050565b60006020820190506125b1600083018461258d565b92915050565b600081519050919050565b600082825260208201905092915050565b60005b838110156125f15780820151818401526020810190506125d6565b60008484015250505050565b6000601f19601f8301169050919050565b6000612619826125b7565b61262381856125c2565b93506126338185602086016125d3565b61263c816125fd565b840191505092915050565b60006020820190508181036000830152612661818461260e565b905092915050565b60006020828403121561267f5761267e612385565b5b600061268d8482850161240e565b91505092915050565b61269f816123af565b82525050565b60006020820190506126ba6000830184612696565b92915050565b600080604083850312156126d7576126d6612385565b5b60006126e5858286016123d8565b92505060206126f68582860161240e565b9150509250929050565b60008060006060848603121561271957612718612385565b5b6000612727868287016123d8565b9350506020612738868287016123d8565b92505060406127498682870161240e565b9150509250925092565b60006020828403121561276957612768612385565b5b6000612777848285016123d8565b91505092915050565b612789816123ed565b82525050565b60006020820190506127a46000830184612780565b92915050565b6127b381612581565b81146127be57600080fd5b50565b6000813590506127d0816127aa565b92915050565b600080604083850312156127ed576127ec612385565b5b60006127fb858286016123d8565b925050602061280c858286016127c1565b9150509250929050565b600080fd5b7f4e487b7100000000000000000000000000000000000000000000000000000000600052604160045260246000fd5b612853826125fd565b810181811067ffffffffffffffff821117156128725761287161281b565b5b80604052505050565b600061288561237b565b9050612891828261284a565b919050565b600067ffffffffffffffff8211156128b1576128b061281b565b5b6128ba826125fd565b9050602081019050919050565b82818337600083830152505050565b60006128e96128e484612896565b61287b565b90508281526020810184848401111561290557612904612816565b5b6129108482856128c7565b509392505050565b600082601f83011261292d5761292c612423565b5b813561293d8482602086016128d6565b91505092915050565b600080600080608085870312156129605761295f612385565b5b600061296e878288016123d8565b945050602061297f878288016123d8565b93505060406129908782880161240e565b925050606085013567ffffffffffffffff8111156129b1576129b061238a565b5b6129bd87828801612918565b91505092959194509250565b600080604083850312156129e0576129df612385565b5b60006129ee858286016123d8565b92505060206129ff858286016123d8565b9150509250929050565b7f4e487b7100000000000000000000000000000000000000000000000000000000600052601160045260246000fd5b6000612a43826123ed565b91507fffffffffffffffffffffffffffffffffffffffffffffffffffffffffffffffff8203612a7557612a74612a09565b5b600182019050919050565b7f4e487b7100000000000000000000000000000000000000000000000000000000600052602260045260246000fd5b60006002820490506001821680612ac757607f821691505b602082108103612ada57612ad9612a80565b5b50919050565b6000606082019050612af56000830186612696565b612b026020830185612780565b612b0f6040830184612696565b949350505050565b600081905092915050565b7f22696d616765223a22646174613a696d6167652f7376672b786d6c3b6261736560008201527f36342c0000000000000000000000000000000000000000000000000000000000602082015250565b6000612b7e602383612b17565b9150612b8982612b22565b602382019050919050565b6000612b9f826125b7565b612ba98185612b17565b9350612bb98185602086016125d3565b80840191505092915050565b7f2200000000000000000000000000000000000000000000000000000000000000815250565b6000612bf682612b71565b9150612c028284612b94565b9150612c0d82612bc5565b60018201915081905092915050565b7f22616e696d6174696f6e5f75726c223a22646174613a746578742f68746d6c3b60008201527f6261736536342c00000000000000000000000000000000000000000000000000602082015250565b6000612c78602783612b17565b9150612c8382612c1c565b602782019050919050565b6000612c9982612c6b565b9150612ca58284612b94565b9150612cb082612bc5565b60018201915081905092915050565b7f7b226e616d65223a2022416e696d617465645356472023000000000000000000815250565b7f222c20226465736372697074696f6e223a2022416e206f6e2d636861696e206160008201527f6e696d6174656420535647204e46542e222c2000000000000000000000000000602082015250565b6000612d41603383612b17565b9150612d4c82612ce5565b603382019050919050565b7f2c20000000000000000000000000000000000000000000000000000000000000815250565b7f7d00000000000000000000000000000000000000000000000000000000000000815250565b6000612dae82612cbf565b601782019150612dbe8286612b94565b9150612dc982612d34565b9150612dd58285612b94565b9150612de082612d57565b600282019150612df08284612b94565b9150612dfb82612d7d565b600182019150819050949350505050565b7f646174613a6170706c69636174696f6e2f6a736f6e3b6261736536342c000000815250565b6000612e3d82612e0c565b601d82019150612e4d8284612b94565b915081905092915050565b600081519050919050565b600082825260208201905092915050565b6000612e7f82612e58565b612e898185612e63565b9350612e998185602086016125d3565b612ea2816125fd565b840191505092915050565b6000608082019050612ec26000830187612696565b612ecf6020830186612696565b612edc6040830185612780565b8181036060830152612eee8184612e74565b905095945050505050565b600081519050612f0881612528565b92915050565b600060208284031215612f2457612f23612385565b5b6000612f3284828501612ef9565b91505092915050565b6000819050919050565b6000612f5082612f3b565b9150612f5b83612f3b565b9250828203905081811260008412168282136000851215161715612f8257612f81612a09565b5b92915050565b7f4e487b7100000000000000000000000000000000000000000000000000000000600052601260045260246000fd5b6000612fc282612f3b565b9150612fcd83612f3b565b925082612fdd57612fdc612f88565b5b600160000383147f80000000000000000000000000000000000000000000000000000000000000008314161561301657613015612a09565b5b828205905092915050565b600061302c82612f3b565b915061303783612f3b565b92508282019050828112156000831216838212600084121516171561305f5761305e612a09565b5b92915050565b600061307082612f3b565b915061307b83612f3b565b925082820261308981612f3b565b91507f800000000000000000000000000000000000000000000000000000000000000084146000841216156130c1576130c0612a09565b5b82820584148315176130d6576130d5612a09565b5b5092915050565b60006130e882612f3b565b91507f8000000000000000000000000000000000000000000000000000000000000000820361311a57613119612a09565b5b816000039050919050565b7f3c73766720786d6c6e733d27687474703a2f2f7777772e77332e6f72672f323060008201527f30302f737667272076696577426f783d27000000000000000000000000000000602082015250565b6000613181603183612b17565b915061318c82613125565b603182019050919050565b7f2000000000000000000000000000000000000000000000000000000000000000815250565b7f272077696474683d270000000000000000000000000000000000000000000000815250565b7f27206865696768743d2700000000000000000000000000000000000000000000815250565b7f273e000000000000000000000000000000000000000000000000000000000000815250565b600061323a82613174565b91506132468289612b94565b915061325182613197565b6001820191506132618288612b94565b915061326c82613197565b60018201915061327c8287612b94565b915061328782613197565b6001820191506132978286612b94565b91506132a2826131bd565b6009820191506132b28285612b94565b91506132bd826131e3565b600a820191506132cd8284612b94565b91506132d882613209565b600282019150819050979650505050505050565b60006132f88287612b94565b91506133048286612b94565b91506133108285612b94565b915061331c8284612b94565b915081905095945050505050565b7f3c68746d6c3e3c626f6479207374796c653d276d617267696e3a303b273e3c7360008201527f6372697074207372633d2768747470733a2f2f63646e6a732e636c6f7564666c60208201527f6172652e636f6d2f616a61782f6c6962732f74687265652e6a732f723132382f60408201527f74687265652e6d696e2e6a73273e3c2f7363726970743e3c7363726970743e6360608201527f6f6e7374207363656e653d6e65772054485245452e5363656e652c63616d657260808201527f613d6e65772054485245452e506572737065637469766543616d65726128373560a08201527f2c77696e646f772e696e6e657257696474682f77696e646f772e696e6e65724860c08201527f65696768742c2e312c316533292c72656e64657265723d6e657720544852454560e08201527f2e576562474c52656e64657265723b72656e64657265722e73657453697a65286101008201527f77696e646f772e696e6e657257696474682c77696e646f772e696e6e657248656101208201527f69676874292c646f63756d656e742e626f64792e617070656e644368696c64286101408201527f72656e64657265722e646f6d456c656d656e74293b636f6e73742072616469756101608201527f733d312c7365676d656e74733d36342c636972636c6547656f6d657472793d6e6101808201527f65772054485245452e436972636c6547656f6d6574727928312c3634292c6d616101a08201527f74657269616c3d6e65772054485245452e4d65736842617369634d61746572696101c08201527f616c287b636f6c6f723a31363731313638302c736964653a54485245452e446f6101e08201527f75626c65536964657d292c636972636c653d6e65772054485245452e4d6573686102008201527f28636972636c6547656f6d657472792c6d6174657269616c293b66756e6374696102208201527f6f6e20616e696d61746528297b72657175657374416e696d6174696f6e4672616102408201527f6d6528616e696d617465292c72656e64657265722e72656e646572287363656e6102608201527f652c63616d657261297d7363656e652e61646428636972636c65292c63616d656102808201527f72612e706f736974696f6e2e7a3d352c616e696d61746528292c77696e646f776102a08201527f2e6164644576656e744c697374656e65722827726573697a65272c28293d3e7b6102c08201527f63616d6572612e6173706563743d77696e646f772e696e6e657257696474682f6102e08201527f77696e646f772e696e6e65724865696768742c63616d6572612e7570646174656103008201527f50726f6a656374696f6e4d617472697828292c72656e64657265722e736574536103208201527f697a652877696e646f772e696e6e657257696474682c77696e646f772e696e6e6103408201527f6572486569676874297d293b3c2f7363726970743e3c2f626f64793e3c2f68746103608201527f6d6c3e000000000000000000000000000000000000000000000000000000000061038082015250565b600061379e61038383612b17565b91506137a98261332a565b61038382019050919050565b60006137c082613790565b9150819050919050565b60006040820190506137df6000830185612696565b6137ec6020830184612780565b9392505050565b60006137fe826123ed565b9150613809836123ed565b9250828202613817816123ed565b9150828204841483151761382e5761382d612a09565b5b5092915050565b6000613840826123ed565b915061384b836123ed565b925082820390508181111561386357613862612a09565b5b92915050565b7f4e487b7100000000000000000000000000000000000000000000000000000000600052603260045260246000fd5b60006138a3826123ed565b91506138ae836123ed565b92508282019050808211156138c6576138c5612a09565b5b92915050565b60006138d7826123ed565b91506138e2836123ed565b9250826138f2576138f1612f88565b5b828206905092915050565b6000613908826123ed565b9150613913836123ed565b92508261392357613922612f88565b5b828204905092915050565b7f3c6c696e652078313d2700000000000000000000000000000000000000000000815250565b7f272078323d270000000000000000000000000000000000000000000000000000815250565b7f272079313d270000000000000000000000000000000000000000000000000000815250565b7f272079323d270000000000000000000000000000000000000000000000000000815250565b7f27207374726f6b653d276772617927207374726f6b652d77696474683d27312760008201527f202f3e0000000000000000000000000000000000000000000000000000000000602082015250565b6000613a22602383612b17565b9150613a2d826139c6565b602382019050919050565b7f3c6c696e652079313d2700000000000000000000000000000000000000000000815250565b7f272078313d270000000000000000000000000000000000000000000000000000815250565b6000613a90828c612b94565b9150613a9b8261392e565b600a82019150613aab828b612b94565b9150613ab682613954565b600682019150613ac6828a612b94565b9150613ad18261397a565b600682019150613ae18289612b94565b9150613aec826139a0565b600682019150613afc8288612b94565b9150613b0782613a15565b9150613b1282613a38565b600a82019150613b228287612b94565b9150613b2d826139a0565b600682019150613b3d8286612b94565b9150613b4882613a5e565b600682019150613b588285612b94565b9150613b6382613954565b600682019150613b738284612b94565b9150613b7e82613a15565b91508190509a9950505050505050505050565b7f3c7265637420783d270000000000000000000000000000000000000000000000815250565b7f2720793d27000000000000000000000000000000000000000000000000000000815250565b7f27202f3e00000000000000000000000000000000000000000000000000000000815250565b6000613c0f8288612b94565b9150613c1a82613b91565b600982019150613c2a8287612b94565b9150613c3582613bb7565b600582019150613c458286612b94565b9150613c50826131bd565b600982019150613c608285612b94565b9150613c6b826131e3565b600a82019150613c7b8284612b94565b9150613c8682613bdd565b6004820191508190509695505050505050565b7f4e487b7100000000000000000000000000000000000000000000000000000000600052605160045260246000fdfea26469706673582212203ffb6aaed279cdbf405324f200c43fc0475e6bbd098f623f529932837b7ba3ba64736f6c634300081b0033",
  "linkReferences": {},
  "deployedLinkReferences": {}
}